:020000040000FA
:100000000C9462000C948A000C948A000C948A0070
:100010000C948A000C948A000C948A000C948A0038
:100020000C948A000C948A000C948A000C948A0028
:100030000C948A000C948A000C948A000C948A0018
:100040000C946F020C948A000C943D020C941702DD
:100050000C948A000C948A000C948A000C948A00F8
:100060000C948A000C948A00000000080002010031
:100070000003040700000000000000000000000072
:10008000250028002B0000000000240027002A0083
:1000900000000000230026002900040404040404D6
:1000A0000404020202020202030303030303010227
:1000B00004081020408001020408102001020408F6
:1000C0001020A50411241FBECFEFD8E0DEBFCDBFA6
:1000D00011E0A0E0B1E0EEE3FDE002C005900D927A
:1000E000A633B107D9F721E0A6E3B1E001C01D9224
:1000F000A03EB207E1F710E0C2E6D0E004C02197CD
:10010000FE010E949706C136D107C9F70E94FE0280
:100110000C949D060C940000AF92BF92CF92DF9298
:10012000EF92FF920F931F93CF93DF936C017B01AC
:100130008B01040F151FEB015E01AE18BF08C0173D
:10014000D10759F06991D601ED91FC910190F081B0
:10015000E02DC6010995892B79F7C501DF91CF9173
:100160001F910F91FF90EF90DF90CF90BF90AF90D5
:100170000895FC01538D448D252F30E0842F90E0AD
:10018000821B930B541710F0CF9608950197089592
:10019000FC01918D828D981761F0A28DAE0FBF2F5B
:1001A000B11D5D968C91928D9F5F9F73928F90E0B1
:1001B00008958FEF9FEF0895FC01918D828D981720
:1001C00031F0828DE80FF11D858D90E008958FEF5D
:1001D0009FEF0895FC01918D228D892F90E0805C26
:1001E0009F4F821B91098F739927089583E491E0B3
:1001F0000E94EA0021E0892B09F420E0822F089573
:1002000080E090E0892B29F00E94F60081110C9487
:1002100000000895FC01A48DA80FB92FB11DA35AA9
:10022000BF4F2C91848D90E001968F739927848F16
:10023000A689B7892C93A089B1898C918370806439
:100240008C93938D848D981306C00288F389E02DDA
:1002500080818F7D80830895EF92FF920F931F938B
:10026000CF93DF93EC0181E0888F9B8D8C8D981369
:100270001AC0E889F989808185FF15C09FB7F89475
:10028000EE89FF896083E889F989808183708064C1
:1002900080839FBF81E090E0DF91CF911F910F910C
:1002A000FF90EF900895F62E0B8D10E00F5F1F4F1B
:1002B0000F731127E02E8C8D8E110CC00FB607FC2A
:1002C000FACFE889F989808185FFF5CFCE010E94B8
:1002D0000A01F1CFEB8DEC0FFD2FF11DE35AFF4F1B
:1002E000F0829FB7F8940B8FEA89FB898081806246
:1002F000CFCFCF93DF93EC01888D8823B9F0AA8903
:10030000BB89E889F9898C9185FD03C0808186FDD0
:100310000DC00FB607FCF7CF8C9185FFF2CF80811F
:1003200085FFEDCFCE010E940A01E9CFDF91CF9189
:10033000089590E0FC01E859FF4F2491FC01E2553B
:10034000FF4F3491FC01E656FF4FE491EE23C9F0D4
:10035000222339F0233001F1A8F4213019F12230A1
:1003600029F1F0E0EE0FFF1FE458FF4FA591B49183
:100370008FB7F894EC91611126C030953E233C93E1
:100380008FBF08952730A9F02830C9F0243049F7ED
:10039000809180008F7D03C0809180008F77809353
:1003A0008000DFCF84B58F7784BDDBCF84B58F7DB0
:1003B000FBCF8091B0008F778093B000D2CF809137
:1003C000B0008F7DF9CF3E2BDACF3FB7F894809104
:1003D0003B0190913C01A0913D01B0913E0126B5B9
:1003E000A89B05C02F3F19F00196A11DB11D3FBF6D
:1003F000BA2FA92F982F8827BC01CD01620F711D3C
:10040000811D911D42E0660F771F881F991F4A9535
:10041000D1F70895FC0101900020E9F73197AF0171
:10042000481B590BBC0183E491E00C948C001F9293
:100430000F920FB60F9211242F933F934F935F9318
:100440006F937F938F939F93AF93BF93EF93FF939C
:1004500083E491E00E940A01FF91EF91BF91AF9177
:100460009F918F917F916F915F914F913F912F91CC
:100470000F900FBE0F901F9018951F920F920FB6FE
:100480000F9211242F938F939F93EF93FF93E091FB
:100490005301F09154018081E0915901F0915A018A
:1004A00082FD1BC0908180915C018F5F8F732091D2
:1004B0005D01821741F0E0915C01F0E0ED5BFE4FE1
:1004C000958F80935C01FF91EF919F918F912F9178
:1004D0000F900FBE0F901F9018958081F4CF1F9240
:1004E0000F920FB60F9211242F933F938F939F93E8
:1004F000AF93BF938091370190913801A09139015A
:10050000B0913A013091360123E0230F2D3758F591
:100510000196A11DB11D2093360180933701909360
:100520003801A0933901B0933A0180913B01909139
:100530003C01A0913D01B0913E010196A11DB11D6C
:1005400080933B0190933C01A0933D01B0933E0109
:10055000BF91AF919F918F913F912F910F900FBEBF
:100560000F901F90189526E8230F0296A11DB11D2C
:10057000D2CFCF92DF92EF92FF920F931F93E82F8B
:10058000F92F05C0015011092109310961F190814C
:1005900096239417B9F305C00150110921093109B7
:1005A00011F1908196239413F7CFC12CD12CE12C1B
:1005B000F12C0AC08FEFC81AD80AE80AF80A0C15FD
:1005C0001D052E053F0579F080818623841791F360
:1005D0006C2D7D2D8E2D9F2D1F910F91FF90EF90F3
:1005E000DF90CF90089560E070E080E090E01F9190
:1005F0000F91FF90EF90DF90CF900895CF93DF930E
:10060000CDB7DEB7A1970FB6F894DEBF0FBECDBF52
:10061000789484B5826084BD84B5816084BD85B5DD
:10062000826085BD85B5816085BD80916E008160E9
:1006300080936E001092810080918100826080938F
:100640008100809181008160809381008091800091
:100650008160809380008091B10084608093B100BC
:100660008091B00081608093B00080917A008460B6
:1006700080937A0080917A00826080937A008091E2
:100680007A00816080937A0080917A0080688093FC
:100690007A001092C100E4EBF0E02491E0EAF0E08F
:1006A0008491882399F090E0880F991FFC01EA5704
:1006B000FF4FA591B491FC01E458FF4F85919491AF
:1006C0008FB7F894EC91E22BEC938FBFE5EBF0E061
:1006D0002491E1EAF0E084918823C9F090E0880F4A
:1006E000991FFC01EA57FF4FA591B491FC01E45812
:1006F000FF4F459154913FB7F8949C91822F80957C
:1007000098239C93DA019C9189238C933FBFE091BD
:100710005301F091540182E08083E0914F01F09108
:1007200050011082E0915101F09152018FEC8083D1
:1007300010925B01E0915701F091580186E08083AF
:10074000E0915501F0915601808180618083E091B4
:100750005501F0915601808188608083E0915501B8
:10076000F0915601808180688083E0915501F0917D
:10077000560180818F7D80832AE0422E512C612C8E
:10078000712C30E0232E30E0332E60E086E00E94B2
:1007900099018FE090E00197F1F761E086E00E9417
:1007A000990183E290E00197F1F760E086E00E9412
:1007B0009901E5EBF0E06491E1EAF0E08491E82F43
:1007C000F0E0EE0FFF1FE057FF4F8591949100E49A
:1007D00012E42FE030E0462F0E94B9026115710546
:1007E0008105910529F06F5F7F4F8F4F9F4F9F705D
:1007F0000E947C052DEC3CEC48EE51E40E94D204B2
:1008000020E030E040E05FE30E9408060E944405DB
:10081000693C7105810591050CF074C060933F013E
:1008200070934001809341019093420182E191E0F5
:100830000E940A02C0903F01D0904001E090410127
:10084000F0904201F7FE6BC06DE283E491E00E94FC
:100850002C0122273327A9012C193D094E095F09D4
:1008600019A2DE0191967D01CA01B901A30192018D
:100870000E947506605DF70162937F0121153105C5
:100880004105510589F7E114F10419F0C7010E94EF
:100890000A028BE191E00E940A0283E391E00E9448
:1008A0000A020E94E5014B015C0184EFC82EDD24A1
:1008B000D394E12CF12C0E94E501681979098A0989
:1008C0009B09683E734081059105A8F3B1E0CB1AFE
:1008D000D108E108F108E8EE8E0EE3E09E1EA11CAF
:1008E000B11CC114D104E104F10429F7211431042D
:1008F00009F44BCF0E94F600882309F446CF0E94EA
:10090000000043CF88EC90E0A0E0B0E080933F018E
:1009100090934001A0934101B093420187CFA7017A
:10092000960119A2CE0181967C01CA01B901A301E9
:1009300092010E947506605DD7016E937D012115BD
:1009400031054105510589F79ECFE3E4F1E01382BB
:10095000128288EE93E0A0E0B0E084839583A683C2
:10096000B78384E091E09183808385EC90E0958764
:10097000848784EC90E09787868780EC90E0918B69
:10098000808B81EC90E0938B828B82EC90E0958B56
:10099000848B86EC90E0978B868B118E128E138E53
:1009A000148E08950E94E6040C94CE050E94C7059B
:1009B00058F00E94C00540F029F45F3F29F00C94E4
:1009C000B70551110C9402060C94BD050E94DF0579
:1009D00068F39923B1F3552391F3951B550BBB276E
:1009E000AA2762177307840738F09F5F5F4F220FB3
:1009F000331F441FAA1FA9F335D00E2E3AF0E0E8AA
:100A000032D091505040E695001CCAF72BD0FE2FF3
:100A100029D0660F771F881FBB1F26173707480787
:100A2000AB07B0E809F0BB0B802DBF01FF2793583F
:100A30005F4F3AF09E3F510578F00C94B7050C9447
:100A400002065F3FE4F3983ED4F386957795679569
:100A5000B795F7959F5FC9F7880F911D9695879574
:100A600097F90895E1E0660F771F881FBB1F621793
:100A700073078407BA0720F0621B730B840BBA0B51
:100A8000EE1F88F7E09508950E944B056894B11118
:100A90000C94020608950E94E70588F09F5798F08D
:100AA000B92F9927B751B0F0E1F0660F771F881F73
:100AB000991F1AF0BA95C9F714C0B13091F00E948D
:100AC0000106B1E008950C940106672F782F88275E
:100AD000B85F39F0B93FCCF3869577956795B395B4
:100AE000D9F73EF490958095709561957F4F8F4F23
:100AF0009F4F0895E89409C097FB3EF49095809528
:100B0000709561957F4F8F4F9F4F9923A9F0F92FD3
:100B100096E9BB279395F695879577956795B79551
:100B2000F111F8CFFAF4BB0F11F460FF1BC06F5F37
:100B30007F4F8F4F9F4F16C0882311F096E911C049
:100B4000772321F09EE8872F762F05C0662371F06A
:100B500096E8862F70E060E02AF09A95660F771F7E
:100B6000881FDAF7880F9695879597F9089597F972
:100B70009F6780E870E060E008959FEF80EC089543
:100B800000240A941616170618060906089500246C
:100B90000A9412161306140605060895092E0394E6
:100BA000000C11F4882352F0BB0F40F4BF2B11F45A
:100BB00060FF04C06F5F7F4F8F4F9F4F089557FDB9
:100BC0009058440F551F59F05F3F71F04795880FBB
:100BD00097FB991F61F09F3F79F087950895121652
:100BE00013061406551FF2CF4695F1DF08C01616FE
:100BF00017061806991FF1CF8695710561050894AF
:100C00000895E894BB2766277727CB0197F90895C5
:100C10000E941B060C94CE050E94C00538F00E946D
:100C2000C70520F0952311F00C94B7050C94BD0571
:100C300011240C9402060E94DF0570F3959FC1F306
:100C4000950F50E0551F629FF001729FBB27F00D7A
:100C5000B11D639FAA27F00DB11DAA1F649F6627CF
:100C6000B00DA11D661F829F2227B00DA11D621F1E
:100C7000739FB00DA11D621F839FA00D611D221FD8
:100C8000749F3327A00D611D231F849F600D211DBC
:100C9000822F762F6A2F11249F5750409AF0F1F03F
:100CA00088234AF0EE0FFF1FBB1F661F771F881FA8
:100CB00091505040A9F79E3F510580F00C94B70524
:100CC0000C9402065F3FE4F3983ED4F38695779543
:100CD0006795B795F795E7959F5FC1F7FE2B880F4E
:100CE000911D9695879597F90895A1E21A2EAA1B52
:100CF000BB1BFD010DC0AA1FBB1FEE1FFF1FA217CC
:100D0000B307E407F50720F0A21BB30BE40BF50BC8
:100D1000661F771F881F991F1A9469F76095709551
:100D2000809590959B01AC01BD01CF010895EE0F18
:100D3000FF1F0590F491E02D0994F894FFCF000077
:100D400000002C018C00B9007901EA00C800DC0029
:100D5000557A616B6C696B200020434D206F6C618C
:100D600072616B206F6C63756C6D75737475722E28
:040D7000000D0A0068
:107E0000112484B714BE81FFF0D085E080938100F7
:107E100082E08093C00088E18093C10086E0809377
:107E2000C20080E18093C4008EE0C9D0259A86E02C
:107E300020E33CEF91E0309385002093840096BBD3
:107E4000B09BFECF1D9AA8958150A9F7CC24DD24C4
:107E500088248394B5E0AB2EA1E19A2EF3E0BF2EE7
:107E6000A2D0813461F49FD0082FAFD0023811F036
:107E7000013811F484E001C083E08DD089C08234E0
:107E800011F484E103C0853419F485E0A6D080C0E4
:107E9000853579F488D0E82EFF2485D0082F10E0AE
:107EA000102F00270E291F29000F111F8ED06801E7
:107EB0006FC0863521F484E090D080E0DECF843638
:107EC00009F040C070D06FD0082F6DD080E0C81688
:107ED00080E7D80618F4F601B7BEE895C0E0D1E017
:107EE00062D089930C17E1F7F0E0CF16F0E7DF06D8
:107EF00018F0F601B7BEE89568D007B600FCFDCFD4
:107F0000A601A0E0B1E02C9130E011968C91119780
:107F100090E0982F8827822B932B1296FA010C0160
:107F200087BEE89511244E5F5F4FF1E0A038BF0790
:107F300051F7F601A7BEE89507B600FCFDCF97BE46
:107F4000E89526C08437B1F42ED02DD0F82E2BD052
:107F50003CD0F601EF2C8F010F5F1F4F84911BD097
:107F6000EA94F801C1F70894C11CD11CFA94CF0C13
:107F7000D11C0EC0853739F428D08EE10CD085E9AC
:107F80000AD08FE07ACF813511F488E018D01DD067
:107F900080E101D065CF982F8091C00085FFFCCF94
:107FA0009093C60008958091C00087FFFCCF809118
:107FB000C00084FD01C0A8958091C6000895E0E648
:107FC000F0E098E1908380830895EDDF803219F02E
:107FD00088E0F5DFFFCF84E1DECF1F93182FE3DFCA
:107FE0001150E9F7F2DF1F91089580E0E8DFEE27F6
:047FF000FF270994CA
:027FFE00040479
:00000001FF
