:100000000C9462000C948A000C948A000C948A0070
:100010000C948A000C948A000C948A000C948A0038
:100020000C948A000C948A000C948A000C9442046C
:100030000C948A000C948A000C948A000C948A0018
:100040000C94F8030C948A000C94C6030C94A0033F
:100050000C948A000C948A000C948A000C948A00F8
:100060000C948A000C948A000000000023002600F3
:10007000290000000000240027002A0000000000E2
:10008000250028002B0004040404040404040202D4
:100090000202020203030303030301020408102007
:1000A0004080010204081020010204081020000012
:1000B0000008000201000003040700000000000027
:1000C0000000430511241FBECFEFD8E0DEBFCDBF37
:1000D00011E0A0E0B1E0ECE2F1E102C005900D9288
:1000E000A631B107D9F721E0A6E1B1E001C01D9228
:1000F000A73EB207E1F710E0C2E6D0E004C02197C6
:10010000FE010E948E08C136D107C9F70E94A005E2
:100110000C9494080C9400008F929F92AF92BF921F
:10012000FF920F931F93CF93DF93853B910511F4BB
:1001300084EB90E0F090E4012BE02F1508F44CC024
:100140002091E60108E512E0021B110927FD139535
:10015000000F111F000F111F2091E501C8E8D0E02A
:10016000C21BD10927FDD395CC0FDD1FCC0FDD1F9E
:100170004E010D2E000CAA08BB089801012E000CA0
:10018000440B550B281939094A095B09DC010E9407
:10019000180724EB30E040E050E00E94EE06820EAB
:1001A000931EA41EB51E8C169D062CF0E801801629
:1001B00091060CF4E4012297CC0FDD1F2FB7F894C1
:1001C0008F2D90E0FC01EE0FFF1FE80FF91FE154A7
:1001D000FE4FD283C1832FBFDF91CF911F910F912B
:1001E000FF90BF90AF909F908F900895AF92BF9275
:1001F000CF92DF92EF92FF920F931F93CF93DF93F3
:100200006C017B018B01040F151FEB015E01AE1821
:10021000BF08C017D10759F06991D601ED91FC9143
:100220000190F081E02DC6010995892B79F7C50170
:10023000DF91CF911F910F91FF90EF90DF90CF90C2
:10024000BF90AF900895FC01538D448D252F30E071
:10025000842F90E0821B930B541710F0CF960895D3
:1002600001970895FC01918D828D981761F0A28D00
:10027000AE0FBF2FB11D5D968C91928D9F5F9F73C6
:10028000928F90E008958FEF9FEF0895FC01918D7C
:10029000828D981731F0828DE80FF11D858D90E0E9
:1002A00008958FEF9FEF0895FC01918D228D892F86
:1002B00090E0805C9F4F821B91098F73992708956E
:1002C00082E291E00E94540121E0892B09F420E0B0
:1002D000822F089580E090E0892B29F00E94600130
:1002E00081110C9400000895FC01A48DA80FB92F72
:1002F000B11DA35ABF4F2C91848D90E001968F734E
:100300009927848FA689B7892C93A089B1898C916C
:10031000837080648C93938D848D981306C00288BB
:10032000F389E02D80818F7D80830895EF92FF9285
:100330000F931F93CF93DF93EC0181E0888F9B8D08
:100340008C8D98131AC0E889F989808185FF15C0C2
:100350009FB7F894EE89FF896083E889F9898081E5
:100360008370806480839FBF81E090E0DF91CF91B4
:100370001F910F91FF90EF900895F62E0B8D10E0D6
:100380000F5F1F4F0F731127E02E8C8D8E110CC045
:100390000FB607FCFACFE889F989808185FFF5CF90
:1003A000CE010E947401F1CFEB8DEC0FFD2FF11DFA
:1003B000E35AFF4FF0829FB7F8940B8FEA89FB89CD
:1003C00080818062CFCFCF93DF93EC01888D88232B
:1003D000B9F0AA89BB89E889F9898C9185FD03C0A8
:1003E000808186FD0DC00FB607FCF7CF8C9185FF8D
:1003F000F2CF808185FFEDCFCE010E947401E9CF5D
:10040000DF91CF91089590E0FC01E255FF4F2491D8
:10041000FC01E656FF4F3491FC01EA57FF4FE4918F
:10042000EE23C9F0222339F0233001F1A8F4213062
:1004300019F1223029F1F0E0EE0FFF1FE458FF4FD1
:10044000A591B4918FB7F894EC91611126C03095C5
:100450003E233C938FBF08952730A9F02830C9F080
:10046000243049F7809180008F7D03C08091800007
:100470008F7780938000DFCF84B58F7784BDDBCF0B
:1004800084B58F7DFBCF8091B0008F778093B000D3
:10049000D2CF8091B0008F7DF9CF3E2BDACFCF93B2
:1004A000DF9390E0FC01E656FF4F24918A579F4F5F
:1004B000FC0184918823D1F090E0880F991FFC0102
:1004C000EE58FF4FA591B491FC01E458FF4FC59140
:1004D000D49161110EC09FB7F8948C91E22FE095F2
:1004E0008E238C932881E223E8839FBFDF91CF91F5
:1004F00008958FB7F894EC91E22BEC938FBFF6CF71
:100500003FB7F89480911C0190911D01A0911E01AC
:10051000B0911F0126B5A89B05C02F3F19F0019689
:10052000A11DB11D3FBFBA2FA92F982F8827BC014D
:10053000CD01620F711D811D911D42E0660F771F75
:10054000881F991F4A95D1F708958F929F92AF9275
:10055000BF92CF92DF92EF92FF920E9480024B01F6
:100560005C018EE1C82ED12CE12CF12C0E9480027E
:10057000681979098A099B09683E734081059105CC
:10058000A8F321E0C21AD108E108F10888EE880E2C
:1005900083E0981EA11CB11CC114D104E104F10434
:1005A00029F7FF90EF90DF90CF90BF90AF909F9092
:1005B0008F9008958F929F92AF92BF920F931F9347
:1005C000CF93DF93CDB7DEB7A1970FB6F894DEBF18
:1005D0000FBECDBF19A2423008F44AE08E010F5D74
:1005E0001F4F842E912CB12CA12CA50194010E94A7
:1005F0002007E62FB901CA01EA3044F5E05DD801D1
:10060000EE938D01232B242B252B79F790E080E0AE
:10061000109769F0FD0101900020E9F73197AF01D3
:100620004A1B5B0BBD0182E291E00E94F600A1969D
:100630000FB6F894DEBF0FBECDBFDF91CF911F91F3
:100640000F91BF90AF909F908F900895E95CD7CFA6
:10065000CF92DF92EF92FF92CF93DF9397FF1BC071
:100660006B017C016DE282E291E00E949601EC0157
:1006700066277727CB016C197D098E099F094AE00F
:100680000E94DA028C0F9D1FDF91CF91FF90EF90B7
:10069000DF90CF9008954AE0DF91CF91FF90EF90E7
:1006A000DF90CF900C94DA020F931F9360E08AE002
:1006B0000E94030283E090E00197F1F761E08AE095
:1006C0000E94030283E290E00197F1F760E08AE084
:1006D0000E940302E5EAF0E06491E1E9F0E0E491D0
:1006E000F0E0EE0FFF1FE859FF4F8591949100E471
:1006F00012E42FE030E0462F0E94FE0461157105E0
:100700008105910529F06F5F7F4F8F4F9F4F9F703D
:100710000E94890726E933E44BE05DE30E94ED0780
:1007200020E030E040E05FE30E94ED070E945107C7
:100730007093210160932001CB011F910F910895C7
:100740001F920F920FB60F9211242F933F934F9346
:100750005F936F937F938F939F93AF93BF93EF9329
:10076000FF9382E291E00E947401FF91EF91BF91AB
:10077000AF919F918F917F916F915F914F913F9139
:100780002F910F900FBE0F901F9018951F920F92F0
:100790000FB60F9211242F938F939F93EF93FF9394
:1007A000E0913201F09133018081E0913801F091C4
:1007B000390182FD1BC0908180913B018F5F8F7357
:1007C00020913C01821741F0E0913B01F0E0EE5DA9
:1007D000FE4F958F80933B01FF91EF919F918F91F9
:1007E0002F910F900FBE0F901F9018958081F4CF1E
:1007F0001F920F920FB60F9211242F933F938F9356
:100800009F93AF93BF938091180190911901A0918C
:100810001A01B0911B013091170123E0230F2D37EE
:1008200058F50196A11DB11D209317018093180161
:1008300090931901A0931A01B0931B0180911C01A0
:1008400090911D01A0911E01B0911F010196A11D63
:10085000B11D80931C0190931D01A0931E01B093C4
:100860001F01BF91AF919F918F913F912F910F9059
:100870000FBE0F901F90189526E8230F0296A11D1A
:10088000B11DD2CF1F920F920FB60F9211242F934A
:100890003F934F935F936F937F938F939F93AF9308
:1008A000BF93CF93DF93EF93FF9380911601C09195
:1008B000E301D0E087FF24C01092850010928400ED
:1008C000809116018F5F8093160180911601082E8A
:1008D000000C990B8C179D0724F4809116018C3025
:1008E000C4F18091840090918500049680349C49E5
:1008F00008F47AC08091840090918500049676C0B7
:1009000080911601082E000C990B8C179D07C4F6D8
:10091000E09116018E2FEE0F990BFC01EE0FFF1FD9
:10092000E80FF91FE154FE4F808186FFC9CFE091A7
:1009300016018E2FEE0F990BFC01EE0FFF1FE80F33
:10094000F91FE154FE4F808160E08F730E94030223
:10095000B7CF2091840030918500E09116018E2F51
:10096000EE0F990BFC01EE0FFF1FE80FF91FE1548A
:10097000FE4F81819281820F931F90938900809313
:100980008800E09116018E2FEE0F990BFC01EE0FFF
:10099000FF1FE80FF91FE154FE4F808186FF11C051
:1009A000E09116018E2FEE0F990BFC01EE0FFF1F49
:1009B000E80FF91FE154FE4F808161E08F730E94C0
:1009C0000302FF91EF91DF91CF91BF91AF919F9182
:1009D0008F917F916F915F914F913F912F910F90E8
:1009E0000FBE0F901F90189580E49CE990938900AA
:1009F000809388008FEF80931601E3CFCF92DF9230
:100A0000EF92FF920F931F93E82FF92F05C001502B
:100A100011092109310961F1908196239417B9F3E5
:100A200005C0015011092109310911F19081962366
:100A30009413F7CFC12CD12CE12CF12C0AC08FEFED
:100A4000C81AD80AE80AF80A0C151D052E053F0534
:100A500079F080818623841791F36C2D7D2D8E2D66
:100A60009F2D1F910F91FF90EF90DF90CF900895F1
:100A700060E070E080E090E01F910F91FF90EF90B8
:100A8000DF90CF900895109225011092240188EEF6
:100A900093E0A0E0B0E08093260190932701A0931B
:100AA0002801B093290184E091E090932301809381
:100AB000220185EC90E090932F0180932E0184EC2D
:100AC00090E0909331018093300180EC90E090931E
:100AD00033018093320181EC90E090933501809353
:100AE000340182EC90E0909337018093360186ECDC
:100AF00090E0909339018093380110923B0110925D
:100B00003C0110923D0110923E018091E3018C3036
:100B100098F491E0980F9093E3018093E40190E0C2
:100B2000FC01EE0FFF1FE80FF91FE154FE4F88EBA9
:100B30009BE09283818308958FEF8093E401089571
:100B4000789484B5826084BD84B5816084BD85B5A8
:100B5000826085BD85B5816085BD80916E008160B4
:100B600080936E001092810080918100826080935A
:100B7000810080918100816080938100809180005C
:100B80008160809380008091B10084608093B10087
:100B90008091B00081608093B00080917A00846081
:100BA00080937A0080917A00826080937A008091AD
:100BB0007A00816080937A0080917A0080688093C7
:100BC0007A001092C10061E08AE00E944F0260E06A
:100BD0008BE00E944F02E0913201F091330182E0FC
:100BE0008083E0912E01F0912F011082E09130017D
:100BF000F09131018FEC808310923A01E09136013F
:100C0000F091370186E08083E0913401F091350165
:100C1000808180618083E0913401F0913501808191
:100C200088608083E0913401F09135018081806893
:100C30008083E0913401F091350180818F7D808344
:100C40008091E4018C3008F051C061E08CE00E949A
:100C50004F028091E401282F30E0F901EE0FFF1FD1
:100C6000E20FF31FE154FE4F9081907C9C609083D3
:100C70001092E5011092E6012CE0622F0E9482089A
:100C8000829FB001112430E020E0AB01420F531FDE
:100C9000FA01EE0FFF1FE40FF51FE154FE4F9081A4
:100CA00096FD16C02F5F3F4F2C30310571F7811133
:100CB0000FC01092800082E0809381001092850026
:100CC00010928400B19A80916F00826080936F00CF
:100CD000E091E4018E2F90E0FC01EE0FFF1FE80F82
:100CE000F91FE154FE4F808180648083C0E0D0E032
:100CF000C12CD12C7601C6010E948C000E94A50255
:100D00000E9454039093210180932001C701B601F2
:100D10000E94280341E050E062E171E082E291E04C
:100D20000E94F6006091200170912101072E000CB5
:100D3000880B990B0E94280341E050E064E171E0C8
:100D400082E291E00E94F6008FEFC81AD80AE80A02
:100D5000F80A85EBC816D104E104F10461F684EBCE
:100D6000C82ED12CE12CF12CC6010E948C000E94CF
:100D7000A5020E9454039093210180932001C70192
:100D8000B6010E94280341E050E062E171E082E296
:100D900091E00E94F6006091200170912101072EE0
:100DA000000C880B990B0E94280341E050E064E19D
:100DB00071E082E291E00E94F60081E0C81AD10859
:100DC000E108F10889F6209709F492CF0E946001AA
:100DD000882309F48DCF0E9400008ACF052E97FB4F
:100DE0001EF400940E94050757FD07D00E942007BB
:100DF00007FC03D04EF40C940507509540953095B0
:100E000021953F4F4F4F5F4F089590958095709576
:100E100061957F4F8F4F9F4F08950E944207A59F76
:100E2000900DB49F900DA49F800D911D11240895E5
:100E3000B7FF0C940D070E940D07821B930B0895BA
:100E4000A1E21A2EAA1BBB1BFD010DC0AA1FBB1FCE
:100E5000EE1FFF1FA217B307E407F50720F0A21B40
:100E6000B30BE40BF50B661F771F881F991F1A94AD
:100E700069F760957095809590959B01AC01BD01D7
:100E8000CF010895A29FB001B39FC001A39F700D31
:100E9000811D1124911DB29F700D811D1124911D82
:100EA00008950E9458076894B1110C94E7070895BB
:100EB0000E94CC0788F09F5798F0B92F9927B75117
:100EC000B0F0E1F0660F771F881F991F1AF0BA95EE
:100ED000C9F714C0B13091F00E94E607B1E008955F
:100EE0000C94E607672F782F8827B85F39F0B93F51
:100EF000CCF3869577956795B395D9F73EF49095A1
:100F00008095709561957F4F8F4F9F4F0895E8941E
:100F100009C097FB3EF490958095709561957F4F41
:100F20008F4F9F4F9923A9F0F92F96E9BB279395EF
:100F3000F695879577956795B795F111F8CFFAF4FF
:100F4000BB0F11F460FF1BC06F5F7F4F8F4F9F4F30
:100F500016C0882311F096E911C0772321F09EE88E
:100F6000872F762F05C0662371F096E8862F70E0F4
:100F700060E02AF09A95660F771F881FDAF7880FCE
:100F80009695879597F9089557FD9058440F551FEA
:100F900059F05F3F71F04795880F97FB991F61F0FB
:100FA0009F3F79F087950895121613061406551F72
:100FB000F2CF4695F1DF08C0161617061806991FDE
:100FC000F1CF86957105610508940895E894BB27D3
:100FD00066277727CB0197F908950E9400080C94A3
:100FE00071080E94630838F00E946A0820F0952377
:100FF00011F00C945A080C94600811240C94E70723
:101000000E94C40770F3959FC1F3950F50E0551FE0
:10101000629FF001729FBB27F00DB11D639FAA274D
:10102000F00DB11DAA1F649F6627B00DA11D661F9C
:10103000829F2227B00DA11D621F739FB00DA11DBD
:10104000621F839FA00D611D221F749F3327A00D77
:10105000611D231F849F600D211D822F762F6A2F13
:1010600011249F5750409AF0F1F088234AF0EE0F78
:10107000FF1FBB1F661F771F881F91505040A9F7A5
:101080009E3F510580F00C945A080C94E7075F3F8F
:10109000E4F3983ED4F3869577956795B795F795E1
:1010A000E7959F5FC1F7FE2B880F911D9695879559
:1010B00097F9089597F99F6780E870E060E00895D8
:1010C0009FEF80EC089500240A9416161706180660
:1010D0000906089500240A9412161306140605063C
:1010E0000895092E0394000C11F4882352F0BB0FCD
:1010F00040F4BF2B11F460FF04C06F5F7F4F8F4F30
:101100009F4F0895991B79E004C0991F961708F026
:10111000961B881F7A95C9F780950895EE0FFF1FDB
:0C1120000590F491E02D0994F894FFCFA5
:10112C00000000009601F6002301E3015401320196
:06113C0046012C002E000C
:00000001FF
